{
  "_format": "hh-sol-artifact-1",
  "contractName": "KatsuraOjisan",
  "sourceName": "contracts/KatsuraOjisan.sol",
  "abi": [
    {
      "inputs": [],
      "stateMutability": "nonpayable",
      "type": "constructor"
    },
    {
      "anonymous": false,
      "inputs": [
        {
          "indexed": true,
          "internalType": "address",
          "name": "owner",
          "type": "address"
        },
        {
          "indexed": true,
          "internalType": "address",
          "name": "approved",
          "type": "address"
        },
        {
          "indexed": true,
          "internalType": "uint256",
          "name": "tokenId",
          "type": "uint256"
        }
      ],
      "name": "Approval",
      "type": "event"
    },
    {
      "anonymous": false,
      "inputs": [
        {
          "indexed": true,
          "internalType": "address",
          "name": "owner",
          "type": "address"
        },
        {
          "indexed": true,
          "internalType": "address",
          "name": "operator",
          "type": "address"
        },
        {
          "indexed": false,
          "internalType": "bool",
          "name": "approved",
          "type": "bool"
        }
      ],
      "name": "ApprovalForAll",
      "type": "event"
    },
    {
      "anonymous": false,
      "inputs": [
        {
          "indexed": true,
          "internalType": "address",
          "name": "previousOwner",
          "type": "address"
        },
        {
          "indexed": true,
          "internalType": "address",
          "name": "newOwner",
          "type": "address"
        }
      ],
      "name": "OwnershipTransferred",
      "type": "event"
    },
    {
      "anonymous": false,
      "inputs": [
        {
          "indexed": true,
          "internalType": "address",
          "name": "from",
          "type": "address"
        },
        {
          "indexed": true,
          "internalType": "address",
          "name": "to",
          "type": "address"
        },
        {
          "indexed": true,
          "internalType": "uint256",
          "name": "tokenId",
          "type": "uint256"
        }
      ],
      "name": "Transfer",
      "type": "event"
    },
    {
      "inputs": [
        {
          "internalType": "address",
          "name": "to",
          "type": "address"
        },
        {
          "internalType": "uint256",
          "name": "tokenId",
          "type": "uint256"
        }
      ],
      "name": "approve",
      "outputs": [],
      "stateMutability": "nonpayable",
      "type": "function"
    },
    {
      "inputs": [
        {
          "internalType": "address",
          "name": "owner",
          "type": "address"
        }
      ],
      "name": "balanceOf",
      "outputs": [
        {
          "internalType": "uint256",
          "name": "",
          "type": "uint256"
        }
      ],
      "stateMutability": "view",
      "type": "function"
    },
    {
      "inputs": [
        {
          "internalType": "uint256",
          "name": "tokenId",
          "type": "uint256"
        }
      ],
      "name": "getApproved",
      "outputs": [
        {
          "internalType": "address",
          "name": "",
          "type": "address"
        }
      ],
      "stateMutability": "view",
      "type": "function"
    },
    {
      "inputs": [
        {
          "internalType": "address",
          "name": "owner",
          "type": "address"
        },
        {
          "internalType": "address",
          "name": "operator",
          "type": "address"
        }
      ],
      "name": "isApprovedForAll",
      "outputs": [
        {
          "internalType": "bool",
          "name": "",
          "type": "bool"
        }
      ],
      "stateMutability": "view",
      "type": "function"
    },
    {
      "inputs": [],
      "name": "isPublicSale",
      "outputs": [
        {
          "internalType": "bool",
          "name": "",
          "type": "bool"
        }
      ],
      "stateMutability": "view",
      "type": "function"
    },
    {
      "inputs": [],
      "name": "isWhitelistSale",
      "outputs": [
        {
          "internalType": "bool",
          "name": "",
          "type": "bool"
        }
      ],
      "stateMutability": "view",
      "type": "function"
    },
    {
      "inputs": [
        {
          "internalType": "address",
          "name": "_address",
          "type": "address"
        },
        {
          "internalType": "bytes32[]",
          "name": "_proof",
          "type": "bytes32[]"
        }
      ],
      "name": "isWhitelisted",
      "outputs": [
        {
          "internalType": "bool",
          "name": "",
          "type": "bool"
        }
      ],
      "stateMutability": "view",
      "type": "function"
    },
    {
      "inputs": [],
      "name": "maxMintPerTX",
      "outputs": [
        {
          "internalType": "uint256",
          "name": "",
          "type": "uint256"
        }
      ],
      "stateMutability": "view",
      "type": "function"
    },
    {
      "inputs": [],
      "name": "maxMintsPerPS",
      "outputs": [
        {
          "internalType": "uint256",
          "name": "",
          "type": "uint256"
        }
      ],
      "stateMutability": "view",
      "type": "function"
    },
    {
      "inputs": [],
      "name": "maxMintsPerWL",
      "outputs": [
        {
          "internalType": "uint256",
          "name": "",
          "type": "uint256"
        }
      ],
      "stateMutability": "view",
      "type": "function"
    },
    {
      "inputs": [],
      "name": "maxSupply",
      "outputs": [
        {
          "internalType": "uint256",
          "name": "",
          "type": "uint256"
        }
      ],
      "stateMutability": "view",
      "type": "function"
    },
    {
      "inputs": [],
      "name": "merkleRoot",
      "outputs": [
        {
          "internalType": "bytes32",
          "name": "",
          "type": "bytes32"
        }
      ],
      "stateMutability": "view",
      "type": "function"
    },
    {
      "inputs": [],
      "name": "name",
      "outputs": [
        {
          "internalType": "string",
          "name": "",
          "type": "string"
        }
      ],
      "stateMutability": "view",
      "type": "function"
    },
    {
      "inputs": [],
      "name": "notRevealURI",
      "outputs": [
        {
          "internalType": "string",
          "name": "",
          "type": "string"
        }
      ],
      "stateMutability": "view",
      "type": "function"
    },
    {
      "inputs": [],
      "name": "owner",
      "outputs": [
        {
          "internalType": "address",
          "name": "",
          "type": "address"
        }
      ],
      "stateMutability": "view",
      "type": "function"
    },
    {
      "inputs": [
        {
          "internalType": "uint256",
          "name": "_mintAmount",
          "type": "uint256"
        },
        {
          "internalType": "address",
          "name": "_address",
          "type": "address"
        }
      ],
      "name": "ownerMint",
      "outputs": [],
      "stateMutability": "nonpayable",
      "type": "function"
    },
    {
      "inputs": [
        {
          "internalType": "uint256",
          "name": "tokenId",
          "type": "uint256"
        }
      ],
      "name": "ownerOf",
      "outputs": [
        {
          "internalType": "address",
          "name": "",
          "type": "address"
        }
      ],
      "stateMutability": "view",
      "type": "function"
    },
    {
      "inputs": [
        {
          "internalType": "address",
          "name": "",
          "type": "address"
        }
      ],
      "name": "psMinted",
      "outputs": [
        {
          "internalType": "uint256",
          "name": "",
          "type": "uint256"
        }
      ],
      "stateMutability": "view",
      "type": "function"
    },
    {
      "inputs": [
        {
          "internalType": "uint256",
          "name": "_mintAmount",
          "type": "uint256"
        }
      ],
      "name": "publicSaleMint",
      "outputs": [],
      "stateMutability": "nonpayable",
      "type": "function"
    },
    {
      "inputs": [],
      "name": "renounceOwnership",
      "outputs": [],
      "stateMutability": "nonpayable",
      "type": "function"
    },
    {
      "inputs": [],
      "name": "revealNFT",
      "outputs": [],
      "stateMutability": "nonpayable",
      "type": "function"
    },
    {
      "inputs": [],
      "name": "revealURI",
      "outputs": [
        {
          "internalType": "string",
          "name": "",
          "type": "string"
        }
      ],
      "stateMutability": "view",
      "type": "function"
    },
    {
      "inputs": [],
      "name": "revealed",
      "outputs": [
        {
          "internalType": "bool",
          "name": "",
          "type": "bool"
        }
      ],
      "stateMutability": "view",
      "type": "function"
    },
    {
      "inputs": [
        {
          "internalType": "address",
          "name": "from",
          "type": "address"
        },
        {
          "internalType": "address",
          "name": "to",
          "type": "address"
        },
        {
          "internalType": "uint256",
          "name": "tokenId",
          "type": "uint256"
        }
      ],
      "name": "safeTransferFrom",
      "outputs": [],
      "stateMutability": "nonpayable",
      "type": "function"
    },
    {
      "inputs": [
        {
          "internalType": "address",
          "name": "from",
          "type": "address"
        },
        {
          "internalType": "address",
          "name": "to",
          "type": "address"
        },
        {
          "internalType": "uint256",
          "name": "tokenId",
          "type": "uint256"
        },
        {
          "internalType": "bytes",
          "name": "data",
          "type": "bytes"
        }
      ],
      "name": "safeTransferFrom",
      "outputs": [],
      "stateMutability": "nonpayable",
      "type": "function"
    },
    {
      "inputs": [
        {
          "internalType": "address",
          "name": "operator",
          "type": "address"
        },
        {
          "internalType": "bool",
          "name": "approved",
          "type": "bool"
        }
      ],
      "name": "setApprovalForAll",
      "outputs": [],
      "stateMutability": "nonpayable",
      "type": "function"
    },
    {
      "inputs": [
        {
          "internalType": "bytes32",
          "name": "_merkleRoot",
          "type": "bytes32"
        }
      ],
      "name": "setMerkleRoot",
      "outputs": [],
      "stateMutability": "nonpayable",
      "type": "function"
    },
    {
      "inputs": [
        {
          "internalType": "string",
          "name": "_uri",
          "type": "string"
        }
      ],
      "name": "setNotRevealURI",
      "outputs": [],
      "stateMutability": "nonpayable",
      "type": "function"
    },
    {
      "inputs": [
        {
          "internalType": "bool",
          "name": "_enable",
          "type": "bool"
        }
      ],
      "name": "setPublicSale",
      "outputs": [],
      "stateMutability": "nonpayable",
      "type": "function"
    },
    {
      "inputs": [
        {
          "internalType": "string",
          "name": "_uri",
          "type": "string"
        }
      ],
      "name": "setRevealURI",
      "outputs": [],
      "stateMutability": "nonpayable",
      "type": "function"
    },
    {
      "inputs": [
        {
          "internalType": "bool",
          "name": "_enable",
          "type": "bool"
        }
      ],
      "name": "setWhitelistSale",
      "outputs": [],
      "stateMutability": "nonpayable",
      "type": "function"
    },
    {
      "inputs": [
        {
          "internalType": "bytes4",
          "name": "interfaceId",
          "type": "bytes4"
        }
      ],
      "name": "supportsInterface",
      "outputs": [
        {
          "internalType": "bool",
          "name": "",
          "type": "bool"
        }
      ],
      "stateMutability": "view",
      "type": "function"
    },
    {
      "inputs": [],
      "name": "symbol",
      "outputs": [
        {
          "internalType": "string",
          "name": "",
          "type": "string"
        }
      ],
      "stateMutability": "view",
      "type": "function"
    },
    {
      "inputs": [
        {
          "internalType": "uint256",
          "name": "index",
          "type": "uint256"
        }
      ],
      "name": "tokenByIndex",
      "outputs": [
        {
          "internalType": "uint256",
          "name": "",
          "type": "uint256"
        }
      ],
      "stateMutability": "view",
      "type": "function"
    },
    {
      "inputs": [
        {
          "internalType": "address",
          "name": "owner",
          "type": "address"
        },
        {
          "internalType": "uint256",
          "name": "index",
          "type": "uint256"
        }
      ],
      "name": "tokenOfOwnerByIndex",
      "outputs": [
        {
          "internalType": "uint256",
          "name": "",
          "type": "uint256"
        }
      ],
      "stateMutability": "view",
      "type": "function"
    },
    {
      "inputs": [
        {
          "internalType": "uint256",
          "name": "_tokenId",
          "type": "uint256"
        }
      ],
      "name": "tokenURI",
      "outputs": [
        {
          "internalType": "string",
          "name": "",
          "type": "string"
        }
      ],
      "stateMutability": "view",
      "type": "function"
    },
    {
      "inputs": [],
      "name": "totalSupply",
      "outputs": [
        {
          "internalType": "uint256",
          "name": "",
          "type": "uint256"
        }
      ],
      "stateMutability": "view",
      "type": "function"
    },
    {
      "inputs": [
        {
          "internalType": "address",
          "name": "from",
          "type": "address"
        },
        {
          "internalType": "address",
          "name": "to",
          "type": "address"
        },
        {
          "internalType": "uint256",
          "name": "tokenId",
          "type": "uint256"
        }
      ],
      "name": "transferFrom",
      "outputs": [],
      "stateMutability": "nonpayable",
      "type": "function"
    },
    {
      "inputs": [
        {
          "internalType": "address",
          "name": "newOwner",
          "type": "address"
        }
      ],
      "name": "transferOwnership",
      "outputs": [],
      "stateMutability": "nonpayable",
      "type": "function"
    },
    {
      "inputs": [
        {
          "internalType": "uint256",
          "name": "_mintAmount",
          "type": "uint256"
        },
        {
          "internalType": "bytes32[]",
          "name": "_proof",
          "type": "bytes32[]"
        }
      ],
      "name": "whitelistMint",
      "outputs": [],
      "stateMutability": "nonpayable",
      "type": "function"
    },
    {
      "inputs": [
        {
          "internalType": "address",
          "name": "",
          "type": "address"
        }
      ],
      "name": "wlsMinted",
      "outputs": [
        {
          "internalType": "uint256",
          "name": "",
          "type": "uint256"
        }
      ],
      "stateMutability": "view",
      "type": "function"
    }
  ],
  "bytecode": "0x608060405260405180606001604052806035815260200162004bf560359139600d9080519060200190620000359291906200023e565b50610457600e556005600f55600560105560056011556000601260006101000a81548160ff0219169083151502179055506000601260016101000a81548160ff0219169083151502179055506000601260026101000a81548160ff021916908315150217905550348015620000a957600080fd5b506040518060400160405280600e81526020017f4b617473757261204f6a6973616e0000000000000000000000000000000000008152506040518060400160405280600381526020017f4b4f4a000000000000000000000000000000000000000000000000000000000081525081600090805190602001906200012e9291906200023e565b508060019080519060200190620001479291906200023e565b5050506200016a6200015e6200017060201b60201c565b6200017860201b60201c565b62000353565b600033905090565b6000600a60009054906101000a900473ffffffffffffffffffffffffffffffffffffffff16905081600a60006101000a81548173ffffffffffffffffffffffffffffffffffffffff021916908373ffffffffffffffffffffffffffffffffffffffff1602179055508173ffffffffffffffffffffffffffffffffffffffff168173ffffffffffffffffffffffffffffffffffffffff167f8be0079c531659141344cd1fd0a4f28419497f9722a3daafe3b4186f6b6457e060405160405180910390a35050565b8280546200024c90620002ee565b90600052602060002090601f016020900481019282620002705760008555620002bc565b82601f106200028b57805160ff1916838001178555620002bc565b82800160010185558215620002bc579182015b82811115620002bb5782518255916020019190600101906200029e565b5b509050620002cb9190620002cf565b5090565b5b80821115620002ea576000816000905550600101620002d0565b5090565b600060028204905060018216806200030757607f821691505b602082108114156200031e576200031d62000324565b5b50919050565b7f4e487b7100000000000000000000000000000000000000000000000000000000600052602260045260246000fd5b61489280620003636000396000f3fe608060405234801561001057600080fd5b50600436106102535760003560e01c80636352211e11610146578063a811a37b116100c3578063d021aa5011610087578063d021aa50146106e8578063d2cab05614610706578063d52c57e014610722578063d5abeb011461073e578063e985e9c51461075c578063f2fde38b1461078c57610253565b8063a811a37b14610648578063b3ab66b014610664578063b88d4fde14610680578063c87b56dd1461069c578063ca7ce3ec146106cc57610253565b8063942958f41161010a578063942958f4146105a257806395d89b41146105d25780639970cc29146105f0578063a22cb4651461060e578063a5a865dc1461062a57610253565b80636352211e146104fe57806370a082311461052e578063715018a61461055e5780637cb64759146105685780638da5cb5b1461058457610253565b80632eb4a7ab116101d45780635183022711610198578063518302271461045a578063553f241e146104785780635a23dd99146104965780635aca1bb6146104c65780635accac99146104e257610253565b80632eb4a7ab146103905780632f745c59146103ae57806342842e0e146103de57806342bfa3d2146103fa5780634f6ccce71461042a57610253565b80631455b1e21161021b5780631455b1e2146102fc578063160fba561461031a57806318160ddd146103385780631a09cfe21461035657806323b872dd1461037457610253565b806301ffc9a71461025857806304b4bba91461028857806306fdde0314610292578063081812fc146102b0578063095ea7b3146102e0575b600080fd5b610272600480360381019061026d91906131f4565b6107a8565b60405161027f91906139dc565b60405180910390f35b610290610822565b005b61029a610847565b6040516102a79190613a12565b60405180910390f35b6102ca60048036038101906102c59190613297565b6108d9565b6040516102d79190613975565b60405180910390f35b6102fa60048036038101906102f5919061315a565b61091f565b005b610304610a37565b60405161031191906139dc565b60405180910390f35b610322610a4a565b60405161032f9190613a12565b60405180910390f35b610340610ad8565b60405161034d9190613cb4565b60405180910390f35b61035e610ae5565b60405161036b9190613cb4565b60405180910390f35b61038e60048036038101906103899190612fe4565b610aeb565b005b610398610b4b565b6040516103a591906139f7565b60405180910390f35b6103c860048036038101906103c3919061315a565b610b51565b6040516103d59190613cb4565b60405180910390f35b6103f860048036038101906103f39190612fe4565b610bf6565b005b610414600480360381019061040f9190612f77565b610c16565b6040516104219190613cb4565b60405180910390f35b610444600480360381019061043f9190613297565b610c2e565b6040516104519190613cb4565b60405180910390f35b610462610c9f565b60405161046f91906139dc565b60405180910390f35b610480610cb2565b60405161048d9190613cb4565b60405180910390f35b6104b060048036038101906104ab91906130ba565b610cb8565b6040516104bd91906139dc565b60405180910390f35b6104e060048036038101906104db919061319a565b610d37565b005b6104fc60048036038101906104f7919061324e565b610d5c565b005b61051860048036038101906105139190613297565b610d7e565b6040516105259190613975565b60405180910390f35b61054860048036038101906105439190612f77565b610e30565b6040516105559190613cb4565b60405180910390f35b610566610ee8565b005b610582600480360381019061057d91906131c7565b610efc565b005b61058c610f0e565b6040516105999190613975565b60405180910390f35b6105bc60048036038101906105b79190612f77565b610f38565b6040516105c99190613cb4565b60405180910390f35b6105da610f50565b6040516105e79190613a12565b60405180910390f35b6105f8610fe2565b6040516106059190613cb4565b60405180910390f35b6106286004803603810190610623919061311a565b610fe8565b005b610632610ffe565b60405161063f91906139dc565b60405180910390f35b610662600480360381019061065d919061324e565b611011565b005b61067e60048036038101906106799190613297565b611033565b005b61069a60048036038101906106959190613037565b61121d565b005b6106b660048036038101906106b19190613297565b61127f565b6040516106c39190613a12565b60405180910390f35b6106e660048036038101906106e1919061319a565b61138f565b005b6106f06113b4565b6040516106fd9190613a12565b60405180910390f35b610720600480360381019061071b9190613304565b611442565b005b61073c600480360381019061073791906132c4565b611678565b005b61074661176f565b6040516107539190613cb4565b60405180910390f35b61077660048036038101906107719190612fa4565b611775565b60405161078391906139dc565b60405180910390f35b6107a660048036038101906107a19190612f77565b611809565b005b60007f780e9d63000000000000000000000000000000000000000000000000000000007bffffffffffffffffffffffffffffffffffffffffffffffffffffffff1916827bffffffffffffffffffffffffffffffffffffffffffffffffffffffff1916148061081b575061081a8261188d565b5b9050919050565b61082a61196f565b6001601260006101000a81548160ff021916908315150217905550565b60606000805461085690613f83565b80601f016020809104026020016040519081016040528092919081815260200182805461088290613f83565b80156108cf5780601f106108a4576101008083540402835291602001916108cf565b820191906000526020600020905b8154815290600101906020018083116108b257829003601f168201915b5050505050905090565b60006108e4826119ed565b6004600083815260200190815260200160002060009054906101000a900473ffffffffffffffffffffffffffffffffffffffff169050919050565b600061092a82610d7e565b90508073ffffffffffffffffffffffffffffffffffffffff168373ffffffffffffffffffffffffffffffffffffffff16141561099b576040517f08c379a000000000000000000000000000000000000000000000000000000000815260040161099290613c54565b60405180910390fd5b8073ffffffffffffffffffffffffffffffffffffffff166109ba611a38565b73ffffffffffffffffffffffffffffffffffffffff1614806109e957506109e8816109e3611a38565b611775565b5b610a28576040517f08c379a0000000000000000000000000000000000000000000000000000000008152600401610a1f90613bb4565b60405180910390fd5b610a328383611a40565b505050565b601260019054906101000a900460ff1681565b600c8054610a5790613f83565b80601f0160208091040260200160405190810160405280929190818152602001828054610a8390613f83565b8015610ad05780601f10610aa557610100808354040283529160200191610ad0565b820191906000526020600020905b815481529060010190602001808311610ab357829003601f168201915b505050505081565b6000600880549050905090565b60115481565b610afc610af6611a38565b82611af9565b610b3b576040517f08c379a0000000000000000000000000000000000000000000000000000000008152600401610b3290613c94565b60405180910390fd5b610b46838383611b8e565b505050565b600b5481565b6000610b5c83610e30565b8210610b9d576040517f08c379a0000000000000000000000000000000000000000000000000000000008152600401610b9490613a34565b60405180910390fd5b600660008473ffffffffffffffffffffffffffffffffffffffff1673ffffffffffffffffffffffffffffffffffffffff168152602001908152602001600020600083815260200190815260200160002054905092915050565b610c118383836040518060200160405280600081525061121d565b505050565b60146020528060005260406000206000915090505481565b6000610c38610ad8565b8210610c79576040517f08c379a0000000000000000000000000000000000000000000000000000000008152600401610c7090613c74565b60405180910390fd5b60088281548110610c8d57610c8c614140565b5b90600052602060002001549050919050565b601260009054906101000a900460ff1681565b600f5481565b6000610d2e838380806020026020016040519081016040528093929190818152602001838360200280828437600081840152601f19601f82011690508083019250505050505050600b5486604051602001610d13919061388a565b60405160208183030381529060405280519060200120611df5565b90509392505050565b610d3f61196f565b80601260026101000a81548160ff02191690831515021790555050565b610d6461196f565b80600d9080519060200190610d7a929190612d20565b5050565b6000806002600084815260200190815260200160002060009054906101000a900473ffffffffffffffffffffffffffffffffffffffff169050600073ffffffffffffffffffffffffffffffffffffffff168173ffffffffffffffffffffffffffffffffffffffff161415610e27576040517f08c379a0000000000000000000000000000000000000000000000000000000008152600401610e1e90613c34565b60405180910390fd5b80915050919050565b60008073ffffffffffffffffffffffffffffffffffffffff168273ffffffffffffffffffffffffffffffffffffffff161415610ea1576040517f08c379a0000000000000000000000000000000000000000000000000000000008152600401610e9890613b74565b60405180910390fd5b600360008373ffffffffffffffffffffffffffffffffffffffff1673ffffffffffffffffffffffffffffffffffffffff168152602001908152602001600020549050919050565b610ef061196f565b610efa6000611e0c565b565b610f0461196f565b80600b8190555050565b6000600a60009054906101000a900473ffffffffffffffffffffffffffffffffffffffff16905090565b60136020528060005260406000206000915090505481565b606060018054610f5f90613f83565b80601f0160208091040260200160405190810160405280929190818152602001828054610f8b90613f83565b8015610fd85780601f10610fad57610100808354040283529160200191610fd8565b820191906000526020600020905b815481529060010190602001808311610fbb57829003601f168201915b5050505050905090565b60105481565b610ffa610ff3611a38565b8383611ed2565b5050565b601260029054906101000a900460ff1681565b61101961196f565b80600c908051906020019061102f929190612d20565b5050565b6000811180156110455750600f548111155b611084576040517f08c379a000000000000000000000000000000000000000000000000000000000815260040161107b90613af4565b60405180910390fd5b601260029054906101000a900460ff166110d3576040517f08c379a00000000000000000000000000000000000000000000000000000000081526004016110ca90613b94565b60405180910390fd5b60006110dd610ad8565b9050600e5482826110ee9190613dae565b11158015611148575060115482601360003373ffffffffffffffffffffffffffffffffffffffff1673ffffffffffffffffffffffffffffffffffffffff168152602001908152602001600020546111459190613dae565b11155b611187576040517f08c379a000000000000000000000000000000000000000000000000000000000815260040161117e90613ab4565b60405180910390fd5b6000600190505b82811161121857600081836111a39190613dae565b9050601360003373ffffffffffffffffffffffffffffffffffffffff1673ffffffffffffffffffffffffffffffffffffffff16815260200190815260200160002060008154809291906111f590613fe6565b9190505550611204338261203f565b50808061121090613fe6565b91505061118e565b505050565b61122e611228611a38565b83611af9565b61126d576040517f08c379a000000000000000000000000000000000000000000000000000000000815260040161126490613c94565b60405180910390fd5b6112798484848461205d565b50505050565b606061128a826120b9565b6112c9576040517f08c379a00000000000000000000000000000000000000000000000000000000081526004016112c090613bf4565b60405180910390fd5b60006112d483612125565b9050601260009054906101000a900460ff16611363576000816040516020016112fd9190613953565b604051602081830303815290604052905061133b8182600d604051602001611327939291906138d4565b604051602081830303815290604052612286565b60405160200161134b9190613931565b6040516020818303038152906040529250505061138a565b600c816040516020016113779291906138a5565b6040516020818303038152906040529150505b919050565b61139761196f565b80601260016101000a81548160ff02191690831515021790555050565b600d80546113c190613f83565b80601f01602080910402602001604051908101604052809291908181526020018280546113ed90613f83565b801561143a5780601f1061140f5761010080835404028352916020019161143a565b820191906000526020600020905b81548152906001019060200180831161141d57829003601f168201915b505050505081565b6000831180156114545750600f548311155b611493576040517f08c379a000000000000000000000000000000000000000000000000000000000815260040161148a90613af4565b60405180910390fd5b601260019054906101000a900460ff166114e2576040517f08c379a00000000000000000000000000000000000000000000000000000000081526004016114d990613b94565b60405180910390fd5b6114ed338383610cb8565b61152c576040517f08c379a000000000000000000000000000000000000000000000000000000000815260040161152390613b54565b60405180910390fd5b6000611536610ad8565b9050600e5484826115479190613dae565b111580156115a1575060105484601460003373ffffffffffffffffffffffffffffffffffffffff1673ffffffffffffffffffffffffffffffffffffffff1681526020019081526020016000205461159e9190613dae565b11155b6115e0576040517f08c379a00000000000000000000000000000000000000000000000000000000081526004016115d790613ab4565b60405180910390fd5b6000600190505b84811161167157600081836115fc9190613dae565b9050601460003373ffffffffffffffffffffffffffffffffffffffff1673ffffffffffffffffffffffffffffffffffffffff168152602001908152602001600020600081548092919061164e90613fe6565b919050555061165d338261203f565b50808061166990613fe6565b9150506115e7565b5050505050565b61168061196f565b6000821180156116925750600f548211155b6116d1576040517f08c379a00000000000000000000000000000000000000000000000000000000081526004016116c890613af4565b60405180910390fd5b60006116db610ad8565b9050600e5481846116ec9190613dae565b111561172d576040517f08c379a000000000000000000000000000000000000000000000000000000000815260040161172490613ab4565b60405180910390fd5b6000600190505b83811161176957600081836117499190613dae565b9050611755848261203f565b50808061176190613fe6565b915050611734565b50505050565b600e5481565b6000600560008473ffffffffffffffffffffffffffffffffffffffff1673ffffffffffffffffffffffffffffffffffffffff16815260200190815260200160002060008373ffffffffffffffffffffffffffffffffffffffff1673ffffffffffffffffffffffffffffffffffffffff16815260200190815260200160002060009054906101000a900460ff16905092915050565b61181161196f565b600073ffffffffffffffffffffffffffffffffffffffff168173ffffffffffffffffffffffffffffffffffffffff161415611881576040517f08c379a000000000000000000000000000000000000000000000000000000000815260040161187890613a74565b60405180910390fd5b61188a81611e0c565b50565b60007f80ac58cd000000000000000000000000000000000000000000000000000000007bffffffffffffffffffffffffffffffffffffffffffffffffffffffff1916827bffffffffffffffffffffffffffffffffffffffffffffffffffffffff1916148061195857507f5b5e139f000000000000000000000000000000000000000000000000000000007bffffffffffffffffffffffffffffffffffffffffffffffffffffffff1916827bffffffffffffffffffffffffffffffffffffffffffffffffffffffff1916145b8061196857506119678261240b565b5b9050919050565b611977611a38565b73ffffffffffffffffffffffffffffffffffffffff16611995610f0e565b73ffffffffffffffffffffffffffffffffffffffff16146119eb576040517f08c379a00000000000000000000000000000000000000000000000000000000081526004016119e290613c14565b60405180910390fd5b565b6119f6816120b9565b611a35576040517f08c379a0000000000000000000000000000000000000000000000000000000008152600401611a2c90613c34565b60405180910390fd5b50565b600033905090565b816004600083815260200190815260200160002060006101000a81548173ffffffffffffffffffffffffffffffffffffffff021916908373ffffffffffffffffffffffffffffffffffffffff160217905550808273ffffffffffffffffffffffffffffffffffffffff16611ab383610d7e565b73ffffffffffffffffffffffffffffffffffffffff167f8c5be1e5ebec7d5bd14f71427d1e84f3dd0314c0f7b2291e5b200ac8c7c3b92560405160405180910390a45050565b600080611b0583610d7e565b90508073ffffffffffffffffffffffffffffffffffffffff168473ffffffffffffffffffffffffffffffffffffffff161480611b475750611b468185611775565b5b80611b8557508373ffffffffffffffffffffffffffffffffffffffff16611b6d846108d9565b73ffffffffffffffffffffffffffffffffffffffff16145b91505092915050565b8273ffffffffffffffffffffffffffffffffffffffff16611bae82610d7e565b73ffffffffffffffffffffffffffffffffffffffff1614611c04576040517f08c379a0000000000000000000000000000000000000000000000000000000008152600401611bfb90613a94565b60405180910390fd5b600073ffffffffffffffffffffffffffffffffffffffff168273ffffffffffffffffffffffffffffffffffffffff161415611c74576040517f08c379a0000000000000000000000000000000000000000000000000000000008152600401611c6b90613b14565b60405180910390fd5b611c7f838383612475565b611c8a600082611a40565b6001600360008573ffffffffffffffffffffffffffffffffffffffff1673ffffffffffffffffffffffffffffffffffffffff1681526020019081526020016000206000828254611cda9190613e8f565b925050819055506001600360008473ffffffffffffffffffffffffffffffffffffffff1673ffffffffffffffffffffffffffffffffffffffff1681526020019081526020016000206000828254611d319190613dae565b92505081905550816002600083815260200190815260200160002060006101000a81548173ffffffffffffffffffffffffffffffffffffffff021916908373ffffffffffffffffffffffffffffffffffffffff160217905550808273ffffffffffffffffffffffffffffffffffffffff168473ffffffffffffffffffffffffffffffffffffffff167fddf252ad1be2c89b69c2b068fc378daa952ba7f163c4a11628f55a4df523b3ef60405160405180910390a4611df0838383612589565b505050565b600082611e02858461258e565b1490509392505050565b6000600a60009054906101000a900473ffffffffffffffffffffffffffffffffffffffff16905081600a60006101000a81548173ffffffffffffffffffffffffffffffffffffffff021916908373ffffffffffffffffffffffffffffffffffffffff1602179055508173ffffffffffffffffffffffffffffffffffffffff168173ffffffffffffffffffffffffffffffffffffffff167f8be0079c531659141344cd1fd0a4f28419497f9722a3daafe3b4186f6b6457e060405160405180910390a35050565b8173ffffffffffffffffffffffffffffffffffffffff168373ffffffffffffffffffffffffffffffffffffffff161415611f41576040517f08c379a0000000000000000000000000000000000000000000000000000000008152600401611f3890613b34565b60405180910390fd5b80600560008573ffffffffffffffffffffffffffffffffffffffff1673ffffffffffffffffffffffffffffffffffffffff16815260200190815260200160002060008473ffffffffffffffffffffffffffffffffffffffff1673ffffffffffffffffffffffffffffffffffffffff16815260200190815260200160002060006101000a81548160ff0219169083151502179055508173ffffffffffffffffffffffffffffffffffffffff168373ffffffffffffffffffffffffffffffffffffffff167f17307eab39ab6107e8899845ad3d59bd9653f200f220920489ca2b5937696c318360405161203291906139dc565b60405180910390a3505050565b6120598282604051806020016040528060008152506125e4565b5050565b612068848484611b8e565b6120748484848461263f565b6120b3576040517f08c379a00000000000000000000000000000000000000000000000000000000081526004016120aa90613a54565b60405180910390fd5b50505050565b60008073ffffffffffffffffffffffffffffffffffffffff166002600084815260200190815260200160002060009054906101000a900473ffffffffffffffffffffffffffffffffffffffff1673ffffffffffffffffffffffffffffffffffffffff1614159050919050565b6060600082141561216d576040518060400160405280600181526020017f30000000000000000000000000000000000000000000000000000000000000008152509050612281565b600082905060005b6000821461219f57808061218890613fe6565b915050600a826121989190613e04565b9150612175565b60008167ffffffffffffffff8111156121bb576121ba61416f565b5b6040519080825280601f01601f1916602001820160405280156121ed5781602001600182028036833780820191505090505b5090505b6000851461227a576001826122069190613e8f565b9150600a856122159190614053565b60306122219190613dae565b60f81b81838151811061223757612236614140565b5b60200101907effffffffffffffffffffffffffffffffffffffffffffffffffffffffffffff1916908160001a905350600a856122739190613e04565b94506121f1565b8093505050505b919050565b60606000825114156122a957604051806020016040528060008152509050612406565b600060405180606001604052806040815260200161481d60409139905060006003600285516122d89190613dae565b6122e29190613e04565b60046122ee9190613e35565b905060006020826122ff9190613dae565b67ffffffffffffffff8111156123185761231761416f565b5b6040519080825280601f01601f19166020018201604052801561234a5781602001600182028036833780820191505090505b509050818152600183018586518101602084015b818310156123c5576003830192508251603f8160121c1685015160f81b8252600182019150603f81600c1c1685015160f81b8252600182019150603f8160061c1685015160f81b8252600182019150603f811685015160f81b82526001820191505061235e565b6003895106600181146123df57600281146123ef576123fa565b613d3d60f01b60028303526123fa565b603d60f81b60018303525b50505050508093505050505b919050565b60007f01ffc9a7000000000000000000000000000000000000000000000000000000007bffffffffffffffffffffffffffffffffffffffffffffffffffffffff1916827bffffffffffffffffffffffffffffffffffffffffffffffffffffffff1916149050919050565b6124808383836127d6565b600073ffffffffffffffffffffffffffffffffffffffff168373ffffffffffffffffffffffffffffffffffffffff1614156124c3576124be816127db565b612502565b8173ffffffffffffffffffffffffffffffffffffffff168373ffffffffffffffffffffffffffffffffffffffff1614612501576125008382612824565b5b5b600073ffffffffffffffffffffffffffffffffffffffff168273ffffffffffffffffffffffffffffffffffffffff1614156125455761254081612991565b612584565b8273ffffffffffffffffffffffffffffffffffffffff168273ffffffffffffffffffffffffffffffffffffffff1614612583576125828282612a62565b5b5b505050565b505050565b60008082905060005b84518110156125d9576125c4828683815181106125b7576125b6614140565b5b6020026020010151612ae1565b915080806125d190613fe6565b915050612597565b508091505092915050565b6125ee8383612b0c565b6125fb600084848461263f565b61263a576040517f08c379a000000000000000000000000000000000000000000000000000000000815260040161263190613a54565b60405180910390fd5b505050565b60006126608473ffffffffffffffffffffffffffffffffffffffff16612ce6565b156127c9578373ffffffffffffffffffffffffffffffffffffffff1663150b7a02612689611a38565b8786866040518563ffffffff1660e01b81526004016126ab9493929190613990565b602060405180830381600087803b1580156126c557600080fd5b505af19250505080156126f657506040513d601f19601f820116820180604052508101906126f39190613221565b60015b612779573d8060008114612726576040519150601f19603f3d011682016040523d82523d6000602084013e61272b565b606091505b50600081511415612771576040517f08c379a000000000000000000000000000000000000000000000000000000000815260040161276890613a54565b60405180910390fd5b805181602001fd5b63150b7a0260e01b7bffffffffffffffffffffffffffffffffffffffffffffffffffffffff1916817bffffffffffffffffffffffffffffffffffffffffffffffffffffffff1916149150506127ce565b600190505b949350505050565b505050565b6008805490506009600083815260200190815260200160002081905550600881908060018154018082558091505060019003906000526020600020016000909190919091505550565b6000600161283184610e30565b61283b9190613e8f565b9050600060076000848152602001908152602001600020549050818114612920576000600660008673ffffffffffffffffffffffffffffffffffffffff1673ffffffffffffffffffffffffffffffffffffffff168152602001908152602001600020600084815260200190815260200160002054905080600660008773ffffffffffffffffffffffffffffffffffffffff1673ffffffffffffffffffffffffffffffffffffffff168152602001908152602001600020600084815260200190815260200160002081905550816007600083815260200190815260200160002081905550505b6007600084815260200190815260200160002060009055600660008573ffffffffffffffffffffffffffffffffffffffff1673ffffffffffffffffffffffffffffffffffffffff16815260200190815260200160002060008381526020019081526020016000206000905550505050565b600060016008805490506129a59190613e8f565b90506000600960008481526020019081526020016000205490506000600883815481106129d5576129d4614140565b5b9060005260206000200154905080600883815481106129f7576129f6614140565b5b906000526020600020018190555081600960008381526020019081526020016000208190555060096000858152602001908152602001600020600090556008805480612a4657612a45614111565b5b6001900381819060005260206000200160009055905550505050565b6000612a6d83610e30565b905081600660008573ffffffffffffffffffffffffffffffffffffffff1673ffffffffffffffffffffffffffffffffffffffff168152602001908152602001600020600083815260200190815260200160002081905550806007600084815260200190815260200160002081905550505050565b6000818310612af957612af48284612d09565b612b04565b612b038383612d09565b5b905092915050565b600073ffffffffffffffffffffffffffffffffffffffff168273ffffffffffffffffffffffffffffffffffffffff161415612b7c576040517f08c379a0000000000000000000000000000000000000000000000000000000008152600401612b7390613bd4565b60405180910390fd5b612b85816120b9565b15612bc5576040517f08c379a0000000000000000000000000000000000000000000000000000000008152600401612bbc90613ad4565b60405180910390fd5b612bd160008383612475565b6001600360008473ffffffffffffffffffffffffffffffffffffffff1673ffffffffffffffffffffffffffffffffffffffff1681526020019081526020016000206000828254612c219190613dae565b92505081905550816002600083815260200190815260200160002060006101000a81548173ffffffffffffffffffffffffffffffffffffffff021916908373ffffffffffffffffffffffffffffffffffffffff160217905550808273ffffffffffffffffffffffffffffffffffffffff16600073ffffffffffffffffffffffffffffffffffffffff167fddf252ad1be2c89b69c2b068fc378daa952ba7f163c4a11628f55a4df523b3ef60405160405180910390a4612ce260008383612589565b5050565b6000808273ffffffffffffffffffffffffffffffffffffffff163b119050919050565b600082600052816020526040600020905092915050565b828054612d2c90613f83565b90600052602060002090601f016020900481019282612d4e5760008555612d95565b82601f10612d6757805160ff1916838001178555612d95565b82800160010185558215612d95579182015b82811115612d94578251825591602001919060010190612d79565b5b509050612da29190612da6565b5090565b5b80821115612dbf576000816000905550600101612da7565b5090565b6000612dd6612dd184613cf4565b613ccf565b905082815260208101848484011115612df257612df16141ad565b5b612dfd848285613f41565b509392505050565b6000612e18612e1384613d25565b613ccf565b905082815260208101848484011115612e3457612e336141ad565b5b612e3f848285613f41565b509392505050565b600081359050612e56816147a9565b92915050565b60008083601f840112612e7257612e716141a3565b5b8235905067ffffffffffffffff811115612e8f57612e8e61419e565b5b602083019150836020820283011115612eab57612eaa6141a8565b5b9250929050565b600081359050612ec1816147c0565b92915050565b600081359050612ed6816147d7565b92915050565b600081359050612eeb816147ee565b92915050565b600081519050612f00816147ee565b92915050565b600082601f830112612f1b57612f1a6141a3565b5b8135612f2b848260208601612dc3565b91505092915050565b600082601f830112612f4957612f486141a3565b5b8135612f59848260208601612e05565b91505092915050565b600081359050612f7181614805565b92915050565b600060208284031215612f8d57612f8c6141b7565b5b6000612f9b84828501612e47565b91505092915050565b60008060408385031215612fbb57612fba6141b7565b5b6000612fc985828601612e47565b9250506020612fda85828601612e47565b9150509250929050565b600080600060608486031215612ffd57612ffc6141b7565b5b600061300b86828701612e47565b935050602061301c86828701612e47565b925050604061302d86828701612f62565b9150509250925092565b60008060008060808587031215613051576130506141b7565b5b600061305f87828801612e47565b945050602061307087828801612e47565b935050604061308187828801612f62565b925050606085013567ffffffffffffffff8111156130a2576130a16141b2565b5b6130ae87828801612f06565b91505092959194509250565b6000806000604084860312156130d3576130d26141b7565b5b60006130e186828701612e47565b935050602084013567ffffffffffffffff811115613102576131016141b2565b5b61310e86828701612e5c565b92509250509250925092565b60008060408385031215613131576131306141b7565b5b600061313f85828601612e47565b925050602061315085828601612eb2565b9150509250929050565b60008060408385031215613171576131706141b7565b5b600061317f85828601612e47565b925050602061319085828601612f62565b9150509250929050565b6000602082840312156131b0576131af6141b7565b5b60006131be84828501612eb2565b91505092915050565b6000602082840312156131dd576131dc6141b7565b5b60006131eb84828501612ec7565b91505092915050565b60006020828403121561320a576132096141b7565b5b600061321884828501612edc565b91505092915050565b600060208284031215613237576132366141b7565b5b600061324584828501612ef1565b91505092915050565b600060208284031215613264576132636141b7565b5b600082013567ffffffffffffffff811115613282576132816141b2565b5b61328e84828501612f34565b91505092915050565b6000602082840312156132ad576132ac6141b7565b5b60006132bb84828501612f62565b91505092915050565b600080604083850312156132db576132da6141b7565b5b60006132e985828601612f62565b92505060206132fa85828601612e47565b9150509250929050565b60008060006040848603121561331d5761331c6141b7565b5b600061332b86828701612f62565b935050602084013567ffffffffffffffff81111561334c5761334b6141b2565b5b61335886828701612e5c565b92509250509250925092565b61336d81613ec3565b82525050565b61338461337f82613ec3565b61402f565b82525050565b61339381613ed5565b82525050565b6133a281613ee1565b82525050565b60006133b382613d6b565b6133bd8185613d81565b93506133cd818560208601613f50565b6133d6816141bc565b840191505092915050565b60006133ec82613d76565b6133f68185613d92565b9350613406818560208601613f50565b61340f816141bc565b840191505092915050565b600061342582613d76565b61342f8185613da3565b935061343f818560208601613f50565b80840191505092915050565b6000815461345881613f83565b6134628186613da3565b9450600182166000811461347d576001811461348e576134c1565b60ff198316865281860193506134c1565b61349785613d56565b60005b838110156134b95781548189015260018201915060208101905061349a565b838801955050505b50505092915050565b60006134d7600983613da3565b91506134e2826141da565b600982019050919050565b60006134fa602b83613d92565b915061350582614203565b604082019050919050565b600061351d603283613d92565b915061352882614252565b604082019050919050565b6000613540602683613d92565b915061354b826142a1565b604082019050919050565b6000613563602583613d92565b915061356e826142f0565b604082019050919050565b6000613586600e83613d92565b91506135918261433f565b602082019050919050565b60006135a9601c83613d92565b91506135b482614368565b602082019050919050565b60006135cc600e83613d92565b91506135d782614391565b602082019050919050565b60006135ef602483613d92565b91506135fa826143ba565b604082019050919050565b6000613612601983613d92565b915061361d82614409565b602082019050919050565b6000613635601083613d92565b915061364082614432565b602082019050919050565b6000613658602983613d92565b91506136638261445b565b604082019050919050565b600061367b600883613d92565b9150613686826144aa565b602082019050919050565b600061369e600283613da3565b91506136a9826144d3565b600282019050919050565b60006136c1603e83613d92565b91506136cc826144fc565b604082019050919050565b60006136e4602083613d92565b91506136ef8261454b565b602082019050919050565b6000613707600d83613da3565b915061371282614574565b600d82019050919050565b600061372a601183613d92565b91506137358261459d565b602082019050919050565b600061374d600583613da3565b9150613758826145c6565b600582019050919050565b6000613770601283613da3565b915061377b826145ef565b601282019050919050565b6000613793602083613d92565b915061379e82614618565b602082019050919050565b60006137b6601883613d92565b91506137c182614641565b602082019050919050565b60006137d9602183613d92565b91506137e48261466a565b604082019050919050565b60006137fc601d83613da3565b9150613807826146b9565b601d82019050919050565b600061381f601083613da3565b915061382a826146e2565b601082019050919050565b6000613842602c83613d92565b915061384d8261470b565b604082019050919050565b6000613865602e83613d92565b91506138708261475a565b604082019050919050565b61388481613f37565b82525050565b60006138968284613373565b60148201915081905092915050565b60006138b1828561344b565b91506138bd828461341a565b91506138c882613740565b91508190509392505050565b60006138df826134ca565b91506138eb828661341a565b91506138f682613763565b9150613902828561341a565b915061390d826136fa565b9150613919828461344b565b915061392482613691565b9150819050949350505050565b600061393c826137ef565b9150613948828461341a565b915081905092915050565b600061395e82613812565b915061396a828461341a565b915081905092915050565b600060208201905061398a6000830184613364565b92915050565b60006080820190506139a56000830187613364565b6139b26020830186613364565b6139bf604083018561387b565b81810360608301526139d181846133a8565b905095945050505050565b60006020820190506139f1600083018461338a565b92915050565b6000602082019050613a0c6000830184613399565b92915050565b60006020820190508181036000830152613a2c81846133e1565b905092915050565b60006020820190508181036000830152613a4d816134ed565b9050919050565b60006020820190508181036000830152613a6d81613510565b9050919050565b60006020820190508181036000830152613a8d81613533565b9050919050565b60006020820190508181036000830152613aad81613556565b9050919050565b60006020820190508181036000830152613acd81613579565b9050919050565b60006020820190508181036000830152613aed8161359c565b9050919050565b60006020820190508181036000830152613b0d816135bf565b9050919050565b60006020820190508181036000830152613b2d816135e2565b9050919050565b60006020820190508181036000830152613b4d81613605565b9050919050565b60006020820190508181036000830152613b6d81613628565b9050919050565b60006020820190508181036000830152613b8d8161364b565b9050919050565b60006020820190508181036000830152613bad8161366e565b9050919050565b60006020820190508181036000830152613bcd816136b4565b9050919050565b60006020820190508181036000830152613bed816136d7565b9050919050565b60006020820190508181036000830152613c0d8161371d565b9050919050565b60006020820190508181036000830152613c2d81613786565b9050919050565b60006020820190508181036000830152613c4d816137a9565b9050919050565b60006020820190508181036000830152613c6d816137cc565b9050919050565b60006020820190508181036000830152613c8d81613835565b9050919050565b60006020820190508181036000830152613cad81613858565b9050919050565b6000602082019050613cc9600083018461387b565b92915050565b6000613cd9613cea565b9050613ce58282613fb5565b919050565b6000604051905090565b600067ffffffffffffffff821115613d0f57613d0e61416f565b5b613d18826141bc565b9050602081019050919050565b600067ffffffffffffffff821115613d4057613d3f61416f565b5b613d49826141bc565b9050602081019050919050565b60008190508160005260206000209050919050565b600081519050919050565b600081519050919050565b600082825260208201905092915050565b600082825260208201905092915050565b600081905092915050565b6000613db982613f37565b9150613dc483613f37565b9250827fffffffffffffffffffffffffffffffffffffffffffffffffffffffffffffffff03821115613df957613df8614084565b5b828201905092915050565b6000613e0f82613f37565b9150613e1a83613f37565b925082613e2a57613e296140b3565b5b828204905092915050565b6000613e4082613f37565b9150613e4b83613f37565b9250817fffffffffffffffffffffffffffffffffffffffffffffffffffffffffffffffff0483118215151615613e8457613e83614084565b5b828202905092915050565b6000613e9a82613f37565b9150613ea583613f37565b925082821015613eb857613eb7614084565b5b828203905092915050565b6000613ece82613f17565b9050919050565b60008115159050919050565b6000819050919050565b60007fffffffff0000000000000000000000000000000000000000000000000000000082169050919050565b600073ffffffffffffffffffffffffffffffffffffffff82169050919050565b6000819050919050565b82818337600083830152505050565b60005b83811015613f6e578082015181840152602081019050613f53565b83811115613f7d576000848401525b50505050565b60006002820490506001821680613f9b57607f821691505b60208210811415613faf57613fae6140e2565b5b50919050565b613fbe826141bc565b810181811067ffffffffffffffff82111715613fdd57613fdc61416f565b5b80604052505050565b6000613ff182613f37565b91507fffffffffffffffffffffffffffffffffffffffffffffffffffffffffffffffff82141561402457614023614084565b5b600182019050919050565b600061403a82614041565b9050919050565b600061404c826141cd565b9050919050565b600061405e82613f37565b915061406983613f37565b925082614079576140786140b3565b5b828206905092915050565b7f4e487b7100000000000000000000000000000000000000000000000000000000600052601160045260246000fd5b7f4e487b7100000000000000000000000000000000000000000000000000000000600052601260045260246000fd5b7f4e487b7100000000000000000000000000000000000000000000000000000000600052602260045260246000fd5b7f4e487b7100000000000000000000000000000000000000000000000000000000600052603160045260246000fd5b7f4e487b7100000000000000000000000000000000000000000000000000000000600052603260045260246000fd5b7f4e487b7100000000000000000000000000000000000000000000000000000000600052604160045260246000fd5b600080fd5b600080fd5b600080fd5b600080fd5b600080fd5b600080fd5b6000601f19601f8301169050919050565b60008160601b9050919050565b7f7b226e616d65223a220000000000000000000000000000000000000000000000600082015250565b7f455243373231456e756d657261626c653a206f776e657220696e646578206f7560008201527f74206f6620626f756e6473000000000000000000000000000000000000000000602082015250565b7f4552433732313a207472616e7366657220746f206e6f6e20455243373231526560008201527f63656976657220696d706c656d656e7465720000000000000000000000000000602082015250565b7f4f776e61626c653a206e6577206f776e657220697320746865207a65726f206160008201527f6464726573730000000000000000000000000000000000000000000000000000602082015250565b7f4552433732313a207472616e736665722066726f6d20696e636f72726563742060008201527f6f776e6572000000000000000000000000000000000000000000000000000000602082015250565b7f6c696d6974206578636565646564000000000000000000000000000000000000600082015250565b7f4552433732313a20746f6b656e20616c7265616479206d696e74656400000000600082015250565b7f696e76616c696420616d6f756e74000000000000000000000000000000000000600082015250565b7f4552433732313a207472616e7366657220746f20746865207a65726f2061646460008201527f7265737300000000000000000000000000000000000000000000000000000000602082015250565b7f4552433732313a20617070726f766520746f2063616c6c657200000000000000600082015250565b7f4e6f7420696e2077686974656c69737400000000000000000000000000000000600082015250565b7f4552433732313a2061646472657373207a65726f206973206e6f74206120766160008201527f6c6964206f776e65720000000000000000000000000000000000000000000000602082015250565b7f6e6f74206c697665000000000000000000000000000000000000000000000000600082015250565b7f227d000000000000000000000000000000000000000000000000000000000000600082015250565b7f4552433732313a20617070726f76652063616c6c6572206973206e6f7420746f60008201527f6b656e206f776e6572206e6f7220617070726f76656420666f7220616c6c0000602082015250565b7f4552433732313a206d696e7420746f20746865207a65726f2061646472657373600082015250565b7f222c2022696d616765223a202200000000000000000000000000000000000000600082015250565b7f6e6f6e6578697374656e7420746f6b656e000000000000000000000000000000600082015250565b7f2e6a736f6e000000000000000000000000000000000000000000000000000000600082015250565b7f222c20226465736372697074696f6e223a220000000000000000000000000000600082015250565b7f4f776e61626c653a2063616c6c6572206973206e6f7420746865206f776e6572600082015250565b7f4552433732313a20696e76616c696420746f6b656e2049440000000000000000600082015250565b7f4552433732313a20617070726f76616c20746f2063757272656e74206f776e6560008201527f7200000000000000000000000000000000000000000000000000000000000000602082015250565b7f646174613a6170706c69636174696f6e2f6a736f6e3b6261736536342c000000600082015250565b7f4b617473757261204f6a6973616e202300000000000000000000000000000000600082015250565b7f455243373231456e756d657261626c653a20676c6f62616c20696e646578206f60008201527f7574206f6620626f756e64730000000000000000000000000000000000000000602082015250565b7f4552433732313a2063616c6c6572206973206e6f7420746f6b656e206f776e6560008201527f72206e6f7220617070726f766564000000000000000000000000000000000000602082015250565b6147b281613ec3565b81146147bd57600080fd5b50565b6147c981613ed5565b81146147d457600080fd5b50565b6147e081613ee1565b81146147eb57600080fd5b50565b6147f781613eeb565b811461480257600080fd5b50565b61480e81613f37565b811461481957600080fd5b5056fe4142434445464748494a4b4c4d4e4f505152535455565758595a6162636465666768696a6b6c6d6e6f707172737475767778797a303132333435363738392b2fa2646970667358221220be528ec8261ff6267204081ab36a8de7edf28f4c48eabe9132cafb6b6e9a466664736f6c63430008070033697066733a2f2f516d656d7a42656174466f784639785974707a3734664a396d56725a3450416b4731423374364731697476706769",
  "linkReferences": {},
  "deployedLinkReferences": {}
}